:020000040800F2
:100000002807002029020008E5220008091D000831
:10001000E12200081F040008FD260008000000007F
:100020000000000000000000000000002926000879
:100030007504000800000000E92200082B260008D3
:10004000430200084302000843020008430200087C
:10005000430200084302000843020008430200086C
:10006000430200084302000843020008430200085C
:10007000430200084302000843020008430200084C
:10008000430200084302000843020008430200083C
:10009000430200084302000843020008430200082C
:1000A000430200084302000843020008430200081C
:1000B000430200084302000843020008430200080C
:1000C00043020008430200084302000843020008FC
:1000D00043020008430200084302000843020008EC
:1000E00043020008430200084302000843020008DC
:1000F00043020008430200084302000843020008CC
:1001000043020008430200084302000843020008BB
:1001100043020008430200084302000843020008AB
:10012000430200084302000843020008430200089B
:10013000430200084302000843020008430200088B
:10014000430200084302000843020008430200087B
:10015000430200084302000843020008430200086B
:10016000430200084302000843020008430200085B
:100170004302000843020008430200080000000098
:10018000430200084302000800F002F800F03CF8C7
:100190000AA090E8000C82448344AAF10107DA45E2
:1001A00001D100F031F8AFF2090EBAE80F0013F0F8
:1001B000010F18BFFB1A43F001031847342C00004D
:1001C000542C0000103A24BF78C878C1FAD85207DE
:1001D00024BF30C830C144BF04680C6070470000C1
:1001E0000023002400250026103A28BF78C1FBD840
:1001F000520728BF30C148BF0B6070471FB502F0DF
:10020000E0FD1FBD10B510BD00F0CFF81146FFF79F
:10021000F5FF02F091FA00F0EDF803B4FFF7F2FFFA
:1002200003BC00F0F5F80000094880470948004782
:10023000FEE7FEE7FEE7FEE7FEE7FEE7FEE7FEE796
:10024000FEE7FEE704480549054A064B70470000F3
:10025000E92600088901000828010020280700205D
:10026000280300202803002053EA020C00F06980D4
:100270002DE9F04B4FF00006002B1FBFB3FA83F5BA
:1002800003FA05F424FA05F65E4012BF1643B2FAEB
:1002900082F502FA05F4C5F120051EBF22FA05FC1D
:1002A00044EA0C04203556EA044C4FEA144418BFC3
:1002B000641C4FF000084FF00009904271EB030CF2
:1002C00039D3002919BFB1FA81F701FA07F6B0FA5C
:1002D00080F700FA07F6C7F120071EBF20FA07FCD7
:1002E00046EA0C062037B6FBF4FCA7EB0507103FE7
:1002F00007F01F0BCBF120060CFA0BFB2CFA06F6CD
:1003000044BFB3460026202FA4BF5E464FF0000B2B
:100310005BEA060C08BF4FF0010B19EB0B09ABFBB6
:10032000027C48EB0608C01B06FB02CC0BFB03CC8F
:1003300071EB0C01C1E70B46024641464846BDE859
:10034000F08B13B54FF000004FF00001AFF30080C9
:10035000BDE81C4070474FF0000200B513469446BC
:100360009646203922BFA0E80C50A0E80C50B1F10D
:100370002001BFF4F7AF090728BFA0E80C5048BF21
:100380000CC05DF804EB890028BF40F8042B08BFBF
:10039000704748BF20F8022B11F0804F18BF00F8BB
:1003A000012B7047704770477047754600F02CF876
:1003B000AE4605006946534620F00700854618B052
:1003C00020B5FFF73FFFBDE820404FF000064FF09B
:1003D00000074FF000084FF0000B21F00701AC467A
:1003E000ACE8C009ACE8C009ACE8C009ACE8C00999
:1003F0008D46704710B50446AFF300802046BDE837
:100400001040FFF70ABF000000487047C4000020FA
:1004100001491820ABBEFEE726000200704700BF6E
:10042000FEE7000010B500224FF48071014800F093
:1004300031F910BD000C024010B501221102024832
:1004400000F028F910BD0000000C024010B5002299
:100450004FF40071014800F01DF910BD000C02407E
:1004600010B501225102024800F014F910BD00003D
:10047000000C0240704772B600BFFEE770B504463C
:1004800000F00EF906462546681C10B104480078B5
:10049000054400BF00F004F9801BA842FAD370BDE8
:1004A00010000020F8B502460B460025002400206D
:1004B0000021D5E0012606FA01F51E6806EA0504CA
:1004C000AC4274D11E7906F00306012E04D01E79C9
:1004D00006F00306022E13D190684F000326BE409B
:1004E000B0434F00DE68BE40304390605068012644
:1004F0008E40B0431E79C6F300168E4030435060E4
:100500001E7906F00306032E09D0D0684F0003269B
:10051000BE40B0434F009E68BE403043D0601E795D
:1005200006F00306022E13D1CF0802F1200656F87A
:1005300027004E07F70E0F26BE40B0434F07FF0EB1
:100540001E69BE403043CF0802F1200646F827005E
:1005500010684F000326BE40B0431E7906F0030624
:100560004F00BE40304310605E6806F44036002EF7
:1005700075D000BF002600963B4E366846F4804694
:10058000394F3E603E46366806F48046009600BF0E
:1005900000BF364E8F0856F827008E07370F0F26FC
:1005A000BE40B043324EB24202D1002624E056E0B3
:1005B000304EB24201D101261EE02F4EB24201D18F
:1005C000022619E02D4EB24201D1032614E02C4E32
:1005D000B24201D104260FE02A4EB24201D10526D3
:1005E0000AE0294EB24201D1062605E0274EB2426A
:1005F00001D1072600E008268F073F0FBE40304399
:100600001A4E8F0846F82700214E3068A0435E68D6
:1006100006F4803606B120431D4E3060361D30682A
:10062000A0435E6806F4003606B12043184E361D1E
:100630003060361D3068A0435E6806F4801606B14F
:100640002043134E08363060361D3068A0435E6884
:1006500006F4001606B120430D4E0C363060491CDE
:100660001029FFF427AFF8BD443802400838014094
:10067000000002400004024000080240000C02405A
:10068000001002400014024000180240001C02400A
:10069000003C01400AB1816101E00B0483617047B5
:1006A00001480068704700000800002070B504464B
:1006B0000CB9012070BD94F83D0028B9002084F8E1
:1006C0003C00204600F00EFB242084F83D0020680A
:1006D000006820F00100216808602068006840F48C
:1006E0000040216808602068006820F4004021680C
:1006F000086000F0CDFC05465C496068884206D879
:100700005B48854201D2012007E0002005E05948FE
:10071000854201D2012000E00020012800D1C9E774
:100720005548B5FBF0F62068406820F03F003043A4
:10073000216848604D496068884201D8701C07E014
:100740004FF4967070434FF47A71B0FBF1F0401C97
:100750002168096A21F03F01084321680862434982
:100760006068884214D8681E61684900B0FBF1F0E7
:10077000401CC0F30B00042801D204203DE0681E99
:1007800061684900B0FBF1F0401CC0F30B0034E09D
:10079000A06838B9681E616801EB4101B0FBF1F057
:1007A000401C0AE0681E616801EBC10202EB011106
:1007B000B0FBF1F0401C40F48040C0F30B0008B9DE
:1007C00001201AE0A06848B9681E616801EB410188
:1007D000B0FBF1F0401CC0F30B000CE0681E616838
:1007E00001EBC10202EB0111B0FBF1F0401CC0F3C0
:1007F0000B0040F4804040F400402168C9694CF689
:10080000FF72914308432168C861D4E90701084396
:100810002168096821F0C001084321680860D4E913
:10082000031008432168896848F2FF329143084366
:1008300021688860D4E9050108432168C96821F06E
:10084000FF0108432168C8602068006840F001008B
:100850002168086000202064202084F83D000020EA
:10086000206384F83E0000BF24E70000A08601005A
:1008700080841E0000093D0040420F002DE9F8432E
:100880000446894617469846089EFFF709FF054625
:1008900094F83D0020287DD119230122B249204639
:1008A000009501F07DFB10B10220BDE8F88300BF88
:1008B00094F83C00012801D10220F6E7012084F8D9
:1008C0003C0000BF2068006800F0010028B92068E3
:1008D000006840F00100216808602068006820F48A
:1008E000006021680860222084F83D00102084F810
:1008F0003E00002020646762A4F82A80608D208575
:100900009A48E0622B4632464946204601F01EFADC
:1009100008B10120C9E7208D88B900BF00200090F0
:1009200020684069009020688069009000BF00BF87
:100930002068006840F400702168086047E0208D5E
:10094000012817D12068006820F4806021680860C1
:1009500000BF0020009020684069009020688069F6
:10096000009000BF00BF2068006840F4007021685C
:1009700008602CE0208D022818D12068006820F43F
:100980008060216808602068006840F40060216889
:10099000086000E0E6E000BF0020009020684069A9
:1009A000009020688069009000BF10E02068006817
:1009B00040F480602168086000BF0020009020683B
:1009C0004069009020688069009000BF00BFBAE0D5
:1009D000208D03287ED8208D012815D12A46314646
:1009E000204601F082FB08B101205EE72068006923
:1009F000616A0870606A401C6062208D401E20851C
:100A0000608D401E60859EE0208D02282AD13346ED
:100A1000002257492046009501F0C2FA08B1012092
:100A200043E72068006840F400702168086020688F
:100A30000069616A0870606A401C6062208D401E17
:100A40002085608D401E608520680069616A08709D
:100A5000606A401C6062208D401E2085608D401EB3
:100A6000608570E03346002241492046009501F040
:100A700097FA08B1012018E72068006820F4806028
:100A80002168086020680069616A0870606A401C1B
:100A90006062208D401E2085608D401E608533463B
:100AA000002233492046009501F07AFA08B101206E
:100AB000FBE62068006840F4007021680860206848
:100AC0000069616A0870606A401C6062208D401E87
:100AD000208500E010E0608D401E60852068006980
:100AE000616A0870606A401C6062208D401E20852B
:100AF000608D401E608526E02A463146204601F082
:100B0000F4FA08B10120D0E620680069616A087033
:100B1000606A401C6062208D401E2085608D401EF2
:100B2000608520684069C0F3800060B1206800697A
:100B3000616A0870606A401C6062208D401E2085DA
:100B4000608D401E6085208D00287FF441AF2020FD
:100B500084F83D00002084F83E0000BF84F83C008B
:100B600000BFA2E60220A0E6020010000000FFFF86
:100B7000040001002DE9F8430446894616461F4645
:100B8000DDF82080FFF78CFD054694F83D00202815
:100B90007ED11923012251492046009501F000FA27
:100BA00010B10220BDE8F88300BF94F83C00012892
:100BB00001D10220F6E7012084F83C0000BF206844
:100BC000006800F0010028B92068006840F00100CA
:100BD000216808602068006820F4006021680860CF
:100BE000212084F83D00102084F83E00002020647D
:100BF00066626785608D20853948E0622B464246F3
:100C00004946204601F03EF908B10120CAE700BF7D
:100C10000020009020684069009020688069009062
:100C200000BF00BF44E02A464146204601F09DFA3D
:100C300050B1206C042805D12068006840F4007091
:100C4000216808600120ADE7606A007821680861CA
:100C5000606A401C6062608D401E6085208D401E71
:100C6000208520684069C0F3800070B1208D60B19C
:100C7000606A007821680861606A401C6062608D6B
:100C8000401E6085208D401E20852A46414600E09A
:100C900022E0204601F056F950B1206C042805D11D
:100CA0002068006840F4007021680860012079E73E
:100CB000208D0028B7D12068006840F400702168BA
:100CC0000860202084F83D00002084F83E0000BF2A
:100CD00084F83C0000BF65E7022063E702001000D3
:100CE0000000FFFF10B586B00446142101A8FFF7ED
:100CF00032FB1B492068884230D100BF00200090A1
:100D00001848006840F0020016490860084600686C
:100D100000F00200009000BF00BF4FF4407001904F
:100D200012200290002003900320049004200590DC
:100D300001A90D48FFF7B6FB00BF0020009009484D
:100D40001030006840F40010064910310860084671
:100D5000006800F40010009000BF00BF06B010BD96
:100D6000005400403038024000040240034800684C
:100D700003490978084401490860704708000020C9
:100D80001000002010B50D48006840F400700B49B9
:100D900008600846006840F4806008600846006803
:100DA00040F480700860032000F096F8002000F006
:100DB00007F800F02BF8002010BD0000003C0240B6
:100DC00070B504460E4800784FF47A71B1FBF0F02C
:100DD0000C490968B1FBF0F5284600F07BFF08B12B
:100DE000012070BD102C07D200222146501E00F0B9
:100DF00035F80548046001E00120F2E70020F0E743
:100E000010000020140000200C00002008B500BFD6
:100E1000002000901048006840F480400E490860AF
:100E20000846006800F48040009000BF00BF00BF8B
:100E300000200090081F006840F08050091F0860E3
:100E40000846006800F08050009000BF00BF0720F7
:100E500000F042F808BD0000443802402DE9F05F80
:100E600080460D461646002701F04AFC07463946E3
:100E70002A46334601F00700C0F1070ABAF1040F11
:100E800002D94FF0040A01E0C0F1070AD14600F18F
:100E9000040ABAF1070F02D24FF0000A01E0A0F1F4
:100EA000030AD4464FF0010A0AFA09FAAAF1010A24
:100EB0000AEA020A0AFA0CFA4FF0010B0BFA0CFBD1
:100EC000ABF1010B0BEA030B4AEA0B042146404647
:100ED00001F01EFCBDE8F09F00BF00F00702064BCA
:100EE00019684FF6FF031940044B0B4343EA0221F4
:100EF000014B196000BF70470CED00E00000FA05DF
:100F000070B504460D460CB9012070BD5848006804
:100F100000F00700A84209D255490D700846006844
:100F200000F00700A84201D00120EEE7207800F091
:100F3000020002281DD1207800F00400042805D109
:100F40004C48006840F4E0504A490860207800F0BE
:100F50000800082805D14748006840F4604045492A
:100F600008604448006820F0F000A1680843414947
:100F70000860207800F00100A8B36068012807D15C
:100F80003C4808380068C0F34040B8B90120BCE7CD
:100F90006068022802D06068032807D13548083805
:100FA0000068C0F3406048B90120AEE73148083816
:100FB0000068C0F3400008B90120A6E72D4800688A
:100FC00020F00300616808432A490860FFF768FBC6
:100FD000064609E0FFF764FB801B41F28831884236
:100FE00002D9032091E707E02248006800F00C00D6
:100FF0006168B0EB810FEDD11D48006800F007007B
:10100000A84209D91A490D700846006800F0070087
:10101000A84201D0012078E7207800F004000428DD
:1010200007D11448006820F4E050E16808431149F2
:101030000860207800F00800082808D10D480068F2
:1010400020F46040216940EAC1000A49086000F0CC
:101050002FF808490968C1F30311074A515CC840D9
:101060000649086006480068FFF7AAFE00204CE722
:10107000003C024008380240D62D00081400002031
:101080000C00002001480068704700001400002098
:1010900000B5FFF7F7FF04490968C1F38221034A4D
:1010A000515CC84000BD000008380240E62D000831
:1010B0002DE9F047002400250026A14625480068B8
:1010C00000F00C0020B1042805D008283AD105E032
:1010D000DFF8849039E0DFF8849036E01D48001F87
:1010E000006800F03F041B48001F006800F4800007
:1010F00078B11A481749091F0968C1F38811A0FB84
:1011000001700146224600233846FFF7ADF8054638
:101110000EE011480F49091F0968C1F38811A0FBAF
:1011200001700146224600233846FFF79DF8054628
:101130000848001F0068C0F30140401C4600B5FB92
:10114000F6F902E0DFF8109000BF00BF4846BDE8A6
:10115000F0870000083802400024F40000127A00F2
:10116000F8B504460CB90120F8BD207800F0010064
:10117000002874D0F948006800F00C0004280DD055
:10118000F648006800F00C00082813D1F348001F4F
:10119000006800F48000B0F5800F0BD1EF480838EC
:1011A0000068C0F34040002859D06068002856D13C
:1011B0000120D9E700BF6068B0F5803F08D1E7485B
:1011C0000838006840F48030E449083908601EE0BF
:1011D0006068B0F5A02F0DD1E0480838006840F4F1
:1011E0008020DE49083908600846006840F48030F5
:1011F00008600CE0D9480838006820F48030D749EE
:10120000083908600846006820F48020086000BFA4
:10121000606890B1FFF744FA054606E0FFF740FA30
:10122000401B642801D903209EE7CC480838006899
:10123000C0F340400028F1D011E0FFF731FA054635
:1012400006E0FFF72DFA401B642801D903208BE745
:10125000C24808380068C0F340400028F1D1207827
:1012600000F0020002285FD1BC48006800F00C00CA
:1012700058B1BA48006800F00C0008281CD1B748E3
:10128000001F006800F48000B0B9B4480838006856
:10129000C0F3400020B1E068012801D0012063E7DD
:1012A000AE480838006820F0F800216940EAC10023
:1012B000AA490839086037E0E06800B30120A8496E
:1012C0000860FFF7EDF9054606E0FFF7E9F9401B76
:1012D000022801D9032047E7A04808380068C0F376
:1012E00040000028F1D09D480838006820F0F80040
:1012F000216940EAC10099490839086014E00020DA
:1013000097490860FFF7CCF9054606E0FFF7C8F9F2
:10131000401B022801D9032026E7904808380068BE
:10132000C0F340000028F1D1207800F00800082820
:101330002CD16069A8B101208A490860FFF7B0F993
:10134000054606E0FFF7ACF9401B022801D903204F
:101350000AE782486C300068C0F340000028F1D0F2
:1013600014E000207F490860FFF79AF9054606E07F
:10137000FFF796F9401B022801D90320F4E67748CD
:101380006C300068C0F340000028F1D1207800F0F4
:101390000400042870D1002770483830006800F03D
:1013A000805090B900BF002000906C483830006831
:1013B00040F080506949383108600846006800F004
:1013C0008050009000BF00BF01276748006800F40C
:1013D0008070B0B96448006840F480706249086069
:1013E000FFF75EF9054606E0FFF75AF9401B0228B1
:1013F00001D90320B8E65C48006800F4807000283A
:10140000F2D000BFA068012808D1544868300068B5
:1014100040F001005149683108601DE0A0680528CE
:101420000DD14E486830006840F004004B496831E7
:1014300008600846006840F0010008600CE047487A
:101440006830006820F001004449683108600846AF
:10145000006820F00400086000BFA068A8B1FFF792
:101460001FF9054609E0FFF71BF9401B41F28831DF
:10147000884202D9032077E626E0384868300068C1
:10148000C0F340000028EED013E0FFF709F905464D
:1014900008E0FFF705F9401B41F28831884201D985
:1014A000032061E62D4868300068C0F34000002842
:1014B000EFD1012F07D129483830006820F0805043
:1014C00026493831086000BFA069002845D023486C
:1014D000006800F00C0008285DD0A069022845D102
:1014E00000201F490866FFF7DBF8054606E0FFF716
:1014F000D7F8401B022801D9032035E617480838E1
:101500000068C0F340600028F1D1D4E90701084326
:10151000616A40EA81110122A06AC2EB500041EAEF
:1015200000412C20005D41EA00600C49091F086061
:1015300001200B490866FFF7B3F8054606E0FFF700
:10154000AFF8401B022801D903200DE603480838F4
:101550000068C0F340600028F1D049E0083802403C
:1015600000004742800E47420070004000202149A1
:101570000866FFF795F8054606E0FFF791F8401B6F
:10158000022801D90320EFE51B480068C0F3406042
:101590000028F2D12CE0A069012800D1E4E516482A
:1015A000001D0668A069012820D006F48001E069CA
:1015B00081421BD106F03F01206A814216D147F6D5
:1015C000C0703040616AB0EB811F0FD106F440312A
:1015D0000122A06AC2EB5000B1EB004F06D106F029
:1015E00070612C20005DB1EB006F01D00120BBE5E4
:1015F0000020B9E5000047420038024010B504461B
:101600000CB9012010BD606A38B96068B0F5827FFE
:1016100000D105E00021E16102E00021216161616A
:101620000021A16294F8510028B9002084F85000EC
:10163000204600F047F8022084F851002068006836
:1016400020F0400021680860A08800F482702189A1
:1016500001F404410843A18901F400610843217C9D
:1016600001F002010843217D01F001010843218BB3
:1016700001F400710843217F01F038010843202163
:10168000095D01F080010843218D01F400510843F8
:10169000216808600421A06901EA104094F8241030
:1016A00001F010010843216848602068C06920F4F7
:1016B00000602168C86100206065012084F8510045
:1016C00000209FE710B586B00446142101A8FEF75C
:1016D00042FE2A49206888424DD100BF0020009078
:1016E0002748006840F480402549086008460068A3
:1016F00000F48040009000BF00BF00BF00200090B9
:101700001F481038006840F004001D491039086077
:101710000846006800F00400009000BF00BF00BF52
:10172000002000900846006840F00200086008466B
:10173000006800F00200009000BF00BF042001908C
:1017400002200290002003900320049005200590C1
:1017500001A90C48FEF7A6FE4FF42040019002209C
:10176000029000200390032004900520059001A919
:101770000548FEF797FE06B010BD00000038004097
:101780004038024000080240000402402DE9F843BE
:101790000446884616461D464FF000096068B0F5BD
:1017A000827F0DD1A06858B9042084F851003346D7
:1017B000424641462046009500F077F9BDE8F8839F
:1017C00000BF94F85000012801D10220F6E7012063
:1017D00084F8500000BFFEF763FF074694F85100FD
:1017E000012802D04FF002097EE0B8F1000F00D0CE
:1017F00016B94FF0010977E0042084F85100002069
:101800006065C4F83880A687E6872063A086E086F6
:1018100020646064A068B0F5004F0BD120680068B8
:1018200020F04000216808602068006820F48040B3
:10183000216808602068006800F04000402805D05A
:101840002068006840F0400021680860E068F8B94E
:101850001AE02068806800F0010050B12068007B29
:10186000A16B0870A06B401CA063E08F401EE08756
:101870000AE0FEF715FFC01BA84201D3681C00B99F
:1018800015B94FF003092FE0E08F0028E1D11EE0E9
:101890001AE02068806800F0010050B12068C0683C
:1018A000A16B0880A06B801CA063E08F401EE087C6
:1018B0000AE0FEF7F5FEC01BA84201D3681C00B980
:1018C00015B94FF003090FE0E08F0028E1D13A4647
:1018D0002946204600F0BCFD08B120206065606DFF
:1018E00008B14FF0010900BF012084F8510000BF8A
:1018F000002084F8500000BF48465FE72DE9F84F0C
:101900000446884616461D464FF0000A00BF94F86C
:101910005000012802D10220BDE8F88F012084F890
:10192000500000BFFEF7BCFE0746B14694F85100D8
:10193000012802D04FF0020AADE0B8F1000F00D04C
:1019400016B94FF0010AA6E0032084F851000020E8
:101950006065C4F83080A686E686A063A087E0872D
:1019600060642064A068B0F5004F0BD12068006867
:1019700020F04000216808602068006840F4804042
:10198000216808602068006800F04000402805D009
:101990002068006840F0400021680860E068B0F509
:1019A000006F2FD1606810B1B9F1010F09D1206B20
:1019B00000882168C860206B801C2063E08E401E78
:1019C000E0861BE02068806800F0020002280AD14F
:1019D000206B00882168C860206B801C2063E08E2B
:1019E000401EE0860AE0FEF75BFEC01BA84201D362
:1019F000681C00B915B94FF0030A4CE0E08E0028CE
:101A0000E0D12EE0606810B1B9F1010F09D1206B6F
:101A1000007821680873206B401C2063E08E401E14
:101A2000E0861BE02068806800F0020002280AD1EE
:101A3000206B007821680873206B401C2063E08EC7
:101A4000401EE0860AE0FEF72BFEC01BA84201D331
:101A5000681C00B915B94FF0030A1CE0E08E00289D
:101A6000E0D13A462946204600F03CFD08B120204E
:101A70006065A06850B900BF002000902068C06871
:101A8000009020688068009000BF00BF606D08B1C2
:101A90004FF0010A00BF012084F8510000BF002070
:101AA00084F8500000BF504636E72DE9FF5F04463A
:101AB000884691461D460E9E01200290002001900E
:101AC00000BF94F85000012803D1022004B0BDE803
:101AD000F09F012084F8500000BFFEF7E1FD0746AB
:101AE00094F851B060680390AA46BBF1010F0BD087
:101AF0000398B0F5827F04D1A06810B9BBF1040F40
:101B000002D002200190DBE0B8F1000F03D0B9F160
:101B1000000F00D015B901200190D1E094F85100D8
:101B2000042802D0052084F8510000206065C4F824
:101B30003890E587A587C4F83080E586A5862064BF
:101B400060642068006800F04000402805D02068EC
:101B5000006840F0400021680860E068B0F5006F60
:101B60004AD1606810B1BAF1010F09D1206B008829
:101B70002168C860206B801C2063E08E401EE086D8
:101B800033E02068806800F00200022810D1E08E67
:101B900070B1029801280BD1206B00882168C860C1
:101BA000206B801C2063E08E401EE08600200290A7
:101BB0002068806800F0010068B1E08F58B12068AB
:101BC000C068A16B0880A06B801CA063E08F401EE2
:101BD000E08701200290FEF763FDC01BB04204D3F2
:101BE000701C10B1032001906AE0E08E0028C8D17B
:101BF000E08F0028C5D14AE0606810B1BAF1010F4A
:101C000009D1206B007821680873206B401C206389
:101C1000E08E401EE08634E02068806800F002001C
:101C2000022810D1E08E70B1029801280BD1206BF0
:101C3000007821680873206B401C2063E08E401EF2
:101C4000E086002002902068806800F0010068B102
:101C5000E08F58B12068C068A16B0870A06B401C71
:101C6000A063E08F401EE08701200290FEF718FD80
:101C7000C01BB04201D3701C00B916B903200190FB
:101C80001EE0E08E0028C7D1E08F0028C4D13A467C
:101C90003146204600F026FC20B101200190202092
:101CA00060650DE0A06850B900BF0020009020687A
:101CB000C068009020688068009000BF00BF00BF2F
:101CC000012084F8510000BF002084F8500000BFBC
:101CD0000198FBE670B504462546681EB0F1807F8A
:101CE00001D301200FE0681E4FF0E02148610F2171
:101CF0004FF0FF3000F00CFD00204FF0E021886134
:101D000007200861002070BD00BFFEE7014608689B
:101D10004069C0F38020B0B16FF480600A68506100
:101D200000200863202081F83D00002081F83E005B
:101D3000086C40F00400086400BF002081F83C00FB
:101D400000BF012070470020FCE700002DE9F843A8
:101D500004460D4690461E46E76A2068006840F437
:101D6000806021680860082F04D0012F02D017F589
:101D7000803F06D12068006840F4807021680860C8
:101D800008E0206B112805D12068006840F48070BD
:101D900021680860434600224FF00111204600965A
:101DA00000F0FEF860B12068006800F48070B0F5C3
:101DB000807F02D14FF4007020640320BDE8F883D7
:101DC0002069B0F5804F05D1E8B240F001002168EC
:101DD000086149E005F44070F02141EAE010216813
:101DE0000861334642462649204600F01CF908B1F6
:101DF0000120E3E7E8B22168086133464246204902
:101E0000891F204600F00FF908B10120D6E700BF76
:101E10000020009020684069009020688069009050
:101E200000BF00BF2068006840F48070216808602F
:101E3000434600224FF001112046009600F0B0F812
:101E400058B12068006800F48070B0F5807F02D13E
:101E50004FF4007020640320B0E705F44070F121D6
:101E600041EAE01021680861334642460449891F6F
:101E7000204600F0D8F808B101209FE700209DE738
:101E8000080001002DE9F84304460D461746984620
:101E9000E66A082E04D0012E02D016F5803F06D146
:101EA0002068006840F480702168086008E0206BBA
:101EB000122805D12068006840F48070216808600D
:101EC0003B4600224FF001112046CDF8008000F083
:101ED00067F860B12068006800F48070B0F5807F1A
:101EE00002D14FF4007020640320BDE8F88320691C
:101EF000B0F5804F04D105F0FE002168086112E0C2
:101F000005F44070F02141EAE01021680861434681
:101F10003A460B49204600F086F808B10120E4E774
:101F2000E8B22168086143463A460549891F2046C0
:101F300000F079F808B10120D7E70020D5E70000CC
:101F40000800010070B504460D46164620E0204604
:101F5000FFF7DCFE08B1012070BD681CC0B1FEF7C0
:101F60009FFB801BA84200D895B900202063202049
:101F700084F83D00002084F83E00206C40F02000F2
:101F8000206400BF002084F83C0000BF0120E3E78C
:101F900020684069C0F380000028D8D00020DBE72B
:101FA0002DE9F04104460D4617461E46DDF818801F
:101FB0001CE0701CD0B1FEF773FBA0EB0800B04230
:101FC00000D89EB900202063202084F83D00002026
:101FD00084F83E00206C40F02000206400BF002008
:101FE00084F83C0000BF0120BDE8F081C5F3074044
:101FF00001280AD120684069A9B20840A9B28842E4
:1020000001D101200BE0002009E020688069A9B21D
:102010000840A9B2884201D1012000E00020B84266
:10202000C7D00020E0E72DE9F04104460D461646F2
:102030001F463DE020684069C0F38020E8B1206879
:10204000006840F40070216808606FF480602168C7
:10205000486100202063202084F83D00002084F89F
:102060003E00206C40F00400206400BF002084F893
:102070003C0000BF0120BDE8F081701CC0B1FEF73C
:102080000FFBC01BB04200D896B90020206320206F
:1020900084F83D00002084F83E00206C40F02000D1
:1020A000206400BF002084F83C0000BF0120E2E76C
:1020B000C5F3074001280AD120684069A9B2084049
:1020C000A9B2884201D101200BE0002009E020687C
:1020D0008069A9B20840A9B2884201D1012000E07C
:1020E00000200028A6D00020C5E770B504460D46A4
:1020F000164632E020684069C0F30010A0B16FF0CE
:1021000010002168486100202063202084F83D00F1
:10211000002084F83E00206C206400BF002084F87A
:102120003C0000BF012070BDFEF7BAFA801BA84238
:1021300000D895B900202063202084F83D000020BD
:1021400084F83E00206C40F02000206400BF002096
:1021500084F83C0000BF0120E5E720684069C0F337
:1021600080100028C6D00020DDE770B504460D467B
:10217000164620E02046FFF7C9FD08B1012070BDDA
:10218000681CC0B1FEF78CFA801BA84200D895B934
:1021900000202063202084F83D00002084F83E00C9
:1021A000206C40F02000206400BF002084F83C0038
:1021B00000BF0120E3E720684069C0F3C010002899
:1021C000D8D00020DBE7000000B587B0142102A8BA
:1021D000FEF7C1F800BF002001901F48006840F0E2
:1021E00004001D4908600846006800F004000190E2
:1021F00000BF00BF00BF002001900846006840F00B
:10220000020008600846006800F00200019000BF6C
:1022100000BF00BF002001900846006840F00800A1
:1022200008600846006800F00800019000BF00BF89
:1022300000224FF413410948FEF72CFA4FF41340E3
:1022400002900120039000200490059002A9034809
:10225000FEF728F907B000BD30380240000C0240FC
:1022600010B50B480B4908600B484860002109482D
:102270008160C1604FF48041016100214161816151
:10228000C1610162FEF712FA08B1FEF7F4F810BD61
:102290000054004018000020A086010010B50E4830
:1022A0000E4908604FF48270486000210B4881603D
:1022B000C160016141614FF4007181611021C16110
:1022C00000210162416281620A21C162FFF796F931
:1022D00008B1FEF7D0F810BD003800406C000020B7
:1022E00000BFFEE700BFFEE77047000070B52DEDB0
:1022F000048B82B004469025002601208DF804004E
:10230000012C03D1C2208DF8050004E0022C02D17B
:10231000D2208DF8050093208DF806006420032359
:1023200001AA294600901B48FEF724FC00208DF8E6
:1023300004006420012301AA294600901548FEF7F5
:1023400019FC6420022301AA691C00901148FEF7C1
:1023500095FA9DF805009DF8041000EB012086B267
:102360004FF6FF70864200D10026304600F0A7FBF2
:1023700041EC190B9FED080B53EC102B00F0B2FB56
:1023800041EC180B00F06AFB00EE100A02B0BDEC45
:10239000048B70BD18000020000000000000C03F4A
:1023A00010B52DED068B0220FFF7A0FFDFED0F0A21
:1023B00030EE600A10EE104A204600F091FC41EC2D
:1023C0001A0B9FED0B0B53EC102B00F08BFB41EC29
:1023D000190B00F043FB08EE100A3220FEF74EF80E
:1023E000B0EE480ABDEC068B10BD00000000CC44E6
:1023F0005F5F5F5F5F5FBF3F10B52DED068B012014
:10240000FFF774FFDFED0F0A30EE600A10EE104A9E
:10241000204600F065FC41EC1A0B9FED0B0B53ECD2
:10242000102B00F05FFB41EC190B00F017FB08EEDE
:10243000100A3220FEF722F8B0EE480ABDEC068BF7
:1024400010BD00000000CC445F5F5F5F5F5FBF3F77
:10245000F8B504460E4615466068B0F5827F0DD18A
:10246000A068B0F5004F03D0A068B0F5806F05D12B
:102470002068006820F04000216808606068B0F5BE
:10248000827F1FD1A068B0F5806F0DD03346002247
:1024900080212046009500F05BF808B3606D40F0A5
:1024A000200060650320F8BD33460022012120464C
:1024B000009500F04DF898B1606D40F02000606527
:1024C0000320F0E73346002201212046009500F06A
:1024D0003FF828B1606D40F0200060650320E2E71E
:1024E0000020E0E77CB504460D4616461648006815
:1024F0001821B0FBF1F01549B0FBF1F04FF47A71FF
:10250000484301906068B0F5827F0DD12B460022D0
:1025100080212046009600F01BF898B1606D40F0D5
:102520002000606503207CBD00BF019800B908E071
:102530000198401E019020688068C0F3C0100028F8
:10254000F3D100BF0020EEE71400002040420F004E
:102550002DE9F84F04460D4690461E46DDF82890BA
:10256000FEF79EF8A0EB0900371AFEF799F88246AD
:102570002C480068C0F3CB307843009045E0701CD5
:10258000002842D0FEF78CF8A0EB0A00B84200D237
:10259000A7BB2068406820F0E000216848606068C0
:1025A000B0F5827F0DD1A068B0F5004F03D0A068D0
:1025B000B0F5806F05D12068006820F040002168E8
:1025C0000860A06AB0F5005F0DD100BF2068006808
:1025D00020F40050216808602068006840F4005032
:1025E0002168086000BF012084F8510000BF00206E
:1025F00084F8500000BF0320BDE8F88FFFE7009883
:1026000000B900270098401E00902068806828408C
:10261000A84201D1012000E000204045AFD10020B8
:10262000EAE7000014000020704710B5FEF79EFB9B
:1026300010BD000000B593B0302107A8FDF78BFE58
:10264000142102A8FDF787FE00BF00200190244856
:10265000006840F08050224908600846006800F099
:102660008050019000BF00BF00BF002001901D48B6
:10267000006840F480401B4908600846006800F488
:102680008040019000BF00BF0220079001200A9007
:1026900010200B9002200D9000210E9108210F9127
:1026A00054211091022111910721129107A8FEF7E0
:1026B00057FD08B1FDF7DFFE0F20029002200390C6
:1026C000002004904FF4805005900690022102A84B
:1026D000FEF716FC08B1FDF7CEFE13B000BD0000FA
:1026E00040380240007000400348006840F4700029
:1026F000014908607047000088ED00E000BFFEE778
:1027000002480068C0F30220704700000CED00E0B2
:1027100010B5002804DB0A07130E054A135406E01F
:102720000A07140E034A00F00F031B1FD45410BDF8
:1027300000E400E018ED00E0FEF724FBFFF77AFF6D
:10274000FFF742FDFFF7AAFDFFF78AFD00F026F82C
:102750000A210F4800F032F918E0FFF721FEBCEE25
:10276000C00A10EE100A0B490870FFF745FEBCEED8
:10277000C00A10EE100A07494870084600F0EEF84B
:1027800020B9012211030448FDF784FFE5E70000AA
:102790000000002005000020000C024010B5FDF7ED
:1027A00041FE002000F03AF80C21002000F022F950
:1027B0000021012000F01EF90021022000F01AF98A
:1027C0000321084600F016F90021042000F012F958
:1027D0000021052000F00EF90E21062000F00AF974
:1027E000FDF72AFE10BD000001B582B00020019067
:1027F000FDF72CFE6423012202A90748FFF77EF8AB
:102800006423012201A90448FEF7C0FFFDF728FE5A
:102810009DF804000EBD00006C00002010B586B0CD
:102820000446072C03D1002100F0E4F87EE0172CC9
:1028300004D11121172000F0DDF877E008210020F5
:1028400000F0D8F83F21012000F0D4F80321022045
:1028500000F0D0F80321084600F0CCF80321042052
:1028600000F0C8F80221052000F0C4F80E2106206F
:1028700000F0C0F80021072000F0BCF8002108207B
:1028800000F0B8F80021092000F0B4F828A103C92D
:10289000CDE90401052204A90A2000F0C3F826A10D
:1028A00003C9CDE90201052202A90B2000F0BAF804
:1028B000C3210C2000F09EF8C4210D2000F09AF8EE
:1028C000C5210E2000F096F8C6210F2000F092F8E6
:1028D00017A103C9CDE9000105226946102000F0C7
:1028E000A1F80021112000F085F80021122000F04D
:1028F00081F80021132000F07DF80021142000F061
:1029000079F80021152000F075F80021162000F05C
:1029100071F81121172000F06DF800211C2000F043
:1029200069F800211D2000F065F800BF06B010BD59
:10293000E7E7E7E7E7000000C2C2C2C2C20000004A
:1029400001B5FDF783FD6423012269460248FEF7C5
:10295000D5FFFDF785FD08BD6C00002038B50446A5
:1029600000200090FDF772FDA0200090642301225A
:1029700069461148FEF7C2FF4FF47A7302222146DE
:102980000D48FEF7BBFFFDF76BFD0120FDF776FD5F
:102990001720FFF729FF054605F0100050B105F09C
:1029A000080038B9E12000909DF80000FFF7C8FF4B
:1029B000012038BD0020FCE76C00002070B5044603
:1029C0000E46FDF72FFD3146052000F013F80522D5
:1029D0002146102000F026F80020FFF705FF0546ED
:1029E00045F002052946002000F004F8FDF724FD1B
:1029F00070BD000038B505460C4645F020008DF846
:102A000000008DF80140FDF721FD4FF47A7302229A
:102A100069460348FEF772FFFDF722FD38BD00004E
:102A20006C000020F8B504460E46154644F0200020
:102A30008DF80000FDF70AFD64230122694606486F
:102A4000FEF75CFFAAB24FF47A7331460248FEF7F4
:102A500055FFFDF705FDF8BD6C00002021F0004298
:102A6000A2F16052B2F5801F01F0004328BFD2F1FD
:102A70007F6C0BD95FEA001C43EAC20242EB507044
:102A800018BF704728BF20F001007047B2F5801FC3
:102A9000BCBF184670474FEA410C1CF5001F02D21C
:102AA000084600F093B970B500F0C6F80000008940
:102AB000FFF7F6BF4FF00040A0F580007047B0FA76
:102AC00080F310FA03F10AD0C3F11D0303F580630C
:102AD0004FEA41504FEA035202EBD12170474FF0C9
:102AE00000007047DFF848C170B51CEA111E1EBF18
:102AF0001CEA13159EEA0C0F95EA0C0F00F06F808C
:102B000081EA030423EA4C134EEAD47E21EA4C11F5
:102B100041F4801143F48013AE44A1FB024CA0FBAE
:102B20000365AEF17F7E361955EB0C05A1FB034C16
:102B30004CF10003A0FB021C16EB0C06654153F19F
:102B40000003094218BF46F0010613F4007F0BD1C1
:102B50004FEA03314FEA0530340341EA155140EAA8
:102B600016506FF003020AE04FEAC3214FEAC52076
:102B7000F40241EA555140EA56506FF0020202EB6E
:102B80002E4201EB025585EACE710AD05FEA440C71
:102B900018BF24F0004450F1000041F1000120EA88
:102BA000D47040F2FE7C624500D270BDA84214BFD2
:102BB0004FF080444FF04044002E08BF0024BEF187
:102BC000806FA8BFA1F1C041BDE8704080F2828053
:102BD0004FF0000001F1C04101F0004170479EEA52
:102BE0000C0F0CEA131518BF95EA0C0F06D04FF026
:102BF000000081EA030E0EF0004170BD00F01CF8E9
:102C00008900013E00F007B800F009B84FEA430C14
:102C10005FEA5C5C08D081EA030100F05BB84FEA30
:102C2000410C5FEA5C5CF6D14FF00000014970474F
:102C30000000FF070000F87F0EF1020E2EF0030ED9
:102C40005EF8046B364205D4012A43EB030515F503
:102C5000001F12D8012841EB010C1CF5001F0CD8F5
:102C60000ED14FEAD17C15F5001F0CEB4C0C0CF18A
:102C7000020C08BF4CEBD37C04E04FF0080C01E0E1
:102C80004FEAD37C0CEB4C0526FA05F606F0070656
:102C9000B6F1040C06D20EEB860CBDE870404CF089
:102CA000010C6047DFE80CF0090B02024FF0004115
:102CB0004FF00000A1F5002170BD19461046012813
:102CC00051EB010418BFD4F5001484BF002001F0BB
:102CD000004170BD0808A0F500114FEA31017047AE
:102CE00043004FEAD30C4FEA3C0C43401FBF400760
:102CF0000CF1605113F0FE4F70471CF0006F03D1D0
:102D000000200CF0004170470CF0004343EA507083
:102D100010B540EACC0000F00EF800BF00000092B1
:102D20004FEA0001FFF7D6BF4FF000414FF000001F
:102D3000A1F5002170470EF1020E2EF0030E5EF891
:102D4000044B244204D44FEA4102B2F17F4F11D820
:102D50004FEA4003B3F17F4F0CD80ED14FEAD07C3D
:102D6000B2F17F4F0CEB4C0C0CF1020C08BF4CEB9A
:102D7000D17C04E04FF0080C01E04FEAD17C0CEB71
:102D80004C0324FA03F404F00704B4F1040C06D253
:102D90000EEB840CBDE810404CF0010C6047DFE8FE
:102DA0000CF0070802024FF00040A0F5800010BDB3
:102DB0000846420018BFD2F1807288BF00F0004080
:102DC00010BD4FF04070E1EE100A7047FF2141EA5C
:102DD000D050C00570470000000000000000010254
:102DE00003040607080900000000010203040000B4
:102DF000102E00080000002018000000C401000888
:102E0000282E00081800002010070000E00100082C
:102E1000EEDDCCBBAA0000000000000010000000A6
:082E2000010000000024F40091
:040000050800018965
:00000001FF
